:040000000204AD3217
:03000B000204A943
:0300110002000EDC
:03000E0002046485
:20001400AF8274404FF582120788AD0AAE0BAF0C8D828E838FF01209D9F582C007C006C0FE
:20003400051207D4D005D006D00774012DFAE43EFB8F048A828B838CF01209D9F582C00724
:20005400C006C0051207D4D005D006D00774022DFAE43EFB8F048A828B838CF01209D9F5C6
:2000740082C007C006C0051207D4D005D006D00774032DFAE43EFB8F048A828B838CF01233
:2000940009D9F582C007C006C0051207D4D005D006D00774042DFAE43EFB8F048A828B83C9
:2000B4008CF01209D9F582C007C006C0051207D4D005D006D00774052DFAE43EFB8F048AAA
:2000D400828B838CF01209D9F582C007C006C0051207D4D005D006D00774062DFAE43EFB16
:2000F4008F048A828B838CF01209D9F582C007C006C0051207D4D005D006D00774072DFDF2
:20011400E43EFE8D828E838FF01209D9F5820207D4757E00757F001208E785827DE57E6095
:2001340045E57D704174FFB57B2274D0257E500BE57E24C64005857E7F802B7423B57E269D
:20015400E57F6022E57F24D0F57B801A7432B57E09C2AF757900D2AF800C7438B57E07C24D
:20017400AF757901D2AF857D7E1205AD80A9C2AF758201120788120771E58260F97F00BF4D
:200194002800500D75820AC007120833D0070F80EED2AF74FFB57B051205AD80F6C2AFE5A4
:2001B4007C70030202AE120771E58260F9758201120788120771E58260F97F00BF280050A7
:2001D4000D75820AC007120833D0070F80EE120771E58260F9758280120788120771E58242
:2001F40060F97582471207D47582611207D475826D1207D47582651207D47582201207D484
:2002140075824F1207D47582761207D47582651207D47582721207D4120771E58260F975DF
:2002340082C0120788120771E58260F97582531207D47582631207D475826F1207D47582B5
:20025400721207D47582651207D475823A1207D47582201207D4120771E58260F9AE7A7FCF
:2002740000750F0A8F108E828F83120A2BAE8274302EF5821207D4120771E58260F9AE7AFC
:200294007F00750F0A8F108E828F831209F5AE8274302EF5821207D480FE758201120788EF
:2002B400120771E58260F97F00BF2800500D75820AC007120833D0070F80EE750D00750EAF
:2002D40000E50D030354C0FFE50E2F4480F582120788120771E58260F9E579B50D13E50E91
:2002F400700F7582011207D4120771E582702B80F7E50DC454F02420250EF9E7600F7582CC
:20031400021207D4120771E582700F80F77582201207D4120771E58260F9050E74F0250EFB
:20033400509F050D74FE250D5094D2AF1205AD0201A7C2AF750989757900757A00757BFFED
:20035400757C00750D00750E00E50DC454F02420FF250EF87600050E74F0250E50EB050DBE
:2003740074FE250D50E0D2AF74FFB57B051205AD80F6E57C6003020463E50860FC20E7F9BC
:200394001508C2AF750D00750E00E50DC454F0FF2420250EF9EF2420FFE50E042FF8860770
:2003B400A707050E74F1250E50E0E50DC454F02420240FF87600050D74FE250D50C9E50904
:2003D40075F011A42417F509AE097F00750F038F108E828F831209F5AE82AF83EE4F700910
:2003F400E53E7012752F01800DBE010ABF0007E52E7003753F01E579C454F02420F9E7605E
:2004140004757C0122AF797401C39FC454F0FF2420F9E76005E57A04F57AD2AF05087F0042
:20043400E57B75F00AA4FDAEF08F037C00C3EB9DEC64808EF063F08095F0500D75820AC07D
:2004540007120833D0070F80D71205AD02038622C2AF1207757582061207881208D4750A7C
:2004740063750B0A750C80758208120014750A6B750B0A750C8075821012001475080190A5
:2004940001251204FE9001821204FED2AF1203461205AD80FB0206D8320204B42222222278
:100A63000705060714170E0A04051515160C0404CA
:2004B40075750075720075710075700075740075760075770075780075890075A882D28CE4
:2004D4009004641204FE858274E5747005857081800D7401B574058571818003857281D0CB
:2004F400D0D083D082D0F0D0E022AF75530707BF07047582FF22C2AF75760074FD257640D2
:20051400188576F005F0E5758002C313D5F0FB30E007E57604F57680E28576F005F07401C5
:20053400800225E0D5F0FBFF4275858178E576700575813F800D7401B5760575814F80032D
:2005540075815FC082C0837400F5E0C0E07400F5F0C0F07400F582C0827400F583C083E57A
:20057400767006F5D0C0D080117401B5760775D008C0D0800575D010C0D0E57670058581D1
:2005940070800D7401B576058581718003858172857881D2AF85768222C2AFC0E0C0F0C014
:2005B40082C083C0D0E5747005858170800D7401B574058581718003858172AE747F008EBD
:2005D400828F83A3750F038F101209F5AE828E778577F005F07E017F008006EE2EFEEF33C4
:2005F400FFD5F0F7AC757D00EC5206ED5207EE4F60058577748017AE777F008E828F83A3F2
:20061400750F038F101209F5AE828E7780C2E5747005857081800D7401B5740585718180AE
:2006340003857281D0D0D083D082D0F0D0E0D2AF22C2AF8574F005F07401800225E0D5F0C3
:20065400FBF45275AE747F008E828F83A3750F038F101209F5AE828E77AF778577F005F0F8
:200674007D017E008006ED2DFDEE33FED5F0F7AB757C00EB5205EC5206ED4E6005857774C0
:20069400801FAD777E008D828E83A3750F038E10C0071209F5AD82D0078D77EFB577BC80E5
:2006B400FEE5747005857081800D7401B574058571818003857281D0D0D083D082D0F0D06D
:2006D400E0D2AF22C2AFC0E0C0F0C082C083C0D0E5747005858170800D7401B57405858133
:2006F400718003858172AE747F008E828F83A3750F038F101209F5AE828E778577F005F0C8
:200714007E017F008006EE2EFEEF33FFD5F0F7AC757D00EC5206ED5207EE4F600585777410
:200734008017AE777F008E828F83A3750F038F101209F5AE828E7780C2E5747005857081B4
:1D075400800D7401B574058571818003857281D0D0D083D082D0F0D0E0D2AF32225C
:20077100857382221207AA75820712078875820F12078875730122AF8275730074F05FF5E7
:2007910090D292C292EFC454F0F590D292C29275822812083375730122757300759020D276
:2007B10092C292758228120833D292C292758228120833D297D292C29275822812083375B0
:2007D100730122AF8275730074F05F4408F590D293D292C292EFC454F0FF74084FF590D290
:2007F10092C29275822812083375730122AD82AE83AFF08D828E838FF01209D9FCA3AD822B
:20081100AE83EC601C8D828E838FF01209D9F582C007C006C0051207D4D005D006D00780E3
:06083100D222D582FD2257
:2008370074FFB5A003D38001C3B39200E433F58222AEA07F00EEF4FEEFF4EE30E70475823A
:200857003722AEA07F00EEF4FEEFF4EE30E60475823622AEA07F00EEF4FEEFF4EE30E504AA
:2008770075823522AEA07F00EEF4FEEFF4EE30E40475823422AEA07F00EEF4FEEFF4EE3082
:20089700E30475823322AEA07F00EEF4FEEFF4EE30E20475823222AEA07F00EEF4FEEFF49F
:1D08B700EE30E10475823122AEA07F00EEF4FEEFF4EE30E0047582302275820022E3
:2008D400D2B37580F0227580F0A2B3B39201E433F582227580F774B7B5800475823122743A
:2008F400D7B580047582322274E7B58004758233227580FB74BBB580047582342274DBB500
:2009140080047582352274EBB58004758236227580FD74BDB580047582372274DDB58004D4
:200934007582382274EDB58004758239227580FE74BEB5800475822A2274DEB58004758243
:0F095400302274EEB58004758223227582002252
:20096300E50F451060467A01E50F25E0F50FE510334012F510E582950FE583951040030A29
:2009830080E6C3E51013F510E50F13F50FC3E582950FF5F0E58395104005F58385F082C3DC
:0D09A300E51013F510E50F13F50FDAE12252
:2009B0007A10E4FBFCE58225E0F582E58333F583EB33FBEC33FCEB950FF5F0EC951040064D
:0909D000FCABF0438201DADD22E8
:1C09D90020F71430F6148883A88220F507E6A88375830022E280F7E49322E0222D
:2009F500C2D5E58330E70DD2D5E4C39582F582E49583F583E51030E70BE4C3950FF50FE425
:160A15009510F51012096330D50BE4C39582F582E49583F58322C8
:200A2B00C2D5E58330E70DD2D5E4C39582F582E49583F583E51030E70DB2D5E4C3950FF558
:180A4B000FE49510F5101209B030D50BE4C39582F582E49583F5832250
:00000001FF
